{
  "transactions": [
    {
      "hash": "0x93c900909889f56d14313271ec5a201c20f010bc2ea448bdc0d678867b1af20e",
      "transactionType": "CREATE",
      "contractName": "TestnetFaucet",
      "contractAddress": "0xef1cc9674b940cc3c8a4cc46ea3d05edcb8e9070",
      "function": null,
      "arguments": null,
      "transaction": {
        "from": "0x50b2ae1368f058ed5e1e97aea87ff12c01f6210c",
        "gas": "0x1aec91",
        "value": "0x0",
        "input": "0x608060405262015180600555348015610016575f5ffd5b50335f73ffffffffffffffffffffffffffffffffffffffff168173ffffffffffffffffffffffffffffffffffffffff1603610088575f6040517f1e4fbdf700000000000000000000000000000000000000000000000000000000815260040161007f91906101a4565b60405180910390fd5b610097816100a460201b60201c565b50600180819055506101bd565b5f5f5f9054906101000a900473ffffffffffffffffffffffffffffffffffffffff169050815f5f6101000a81548173ffffffffffffffffffffffffffffffffffffffff021916908373ffffffffffffffffffffffffffffffffffffffff1602179055508173ffffffffffffffffffffffffffffffffffffffff168173ffffffffffffffffffffffffffffffffffffffff167f8be0079c531659141344cd1fd0a4f28419497f9722a3daafe3b4186f6b6457e060405160405180910390a35050565b5f73ffffffffffffffffffffffffffffffffffffffff82169050919050565b5f61018e82610165565b9050919050565b61019e81610184565b82525050565b5f6020820190506101b75f830184610195565b92915050565b61164e806101ca5f395ff3fe608060405234801561000f575f5ffd5b50600436106100cd575f3560e01c8063715018a61161008a57806389919cdd1161006457806389919cdd146102215780638da5cb5b14610251578063d66187b41461026f578063f2fde38b1461028b576100cd565b8063715018a6146101cb5780637556b274146101d5578063861f6bfd14610205576100cd565b806304646a49146100d1578063213522e8146100ef578063229c01d41461011f578063333acbf21461014f578063423cf6c31461017f5780634bada961146101af575b5f5ffd5b6100d96102a7565b6040516100e69190610ce4565b60405180910390f35b61010960048036038101906101049190610e4a565b6102ad565b6040516101169190610ce4565b60405180910390f35b61013960048036038101906101349190610e4a565b6102da565b6040516101469190610ce4565b60405180910390f35b61016960048036038101906101649190610eeb565b610301565b6040516101769190610ce4565b60405180910390f35b61019960048036038101906101949190610eeb565b610339565b6040516101a69190610ce4565b60405180910390f35b6101c960048036038101906101c49190610f6f565b6103d0565b005b6101d3610547565b005b6101ef60048036038101906101ea9190610eeb565b61055a565b6040516101fc9190610ff5565b60405180910390f35b61021f600480360381019061021a919061100e565b6105cd565b005b61023b60048036038101906102369190610e4a565b610616565b6040516102489190611048565b60405180910390f35b61025961065e565b6040516102669190611048565b60405180910390f35b61028960048036038101906102849190610eeb565b610685565b005b6102a560048036038101906102a09190611061565b610aaa565b005b60055481565b6003818051602081018201805184825260208301602085012081835280955050505050505f915090505481565b5f6003826040516102eb91906110de565b9081526020016040518091039020549050919050565b6004602052815f5260405f20818051602081018201805184825260208301602085012081835280955050505050505f91509150505481565b5f5f60045f8573ffffffffffffffffffffffffffffffffffffffff1673ffffffffffffffffffffffffffffffffffffffff1681526020019081526020015f208360405161038691906110de565b90815260200160405180910390205490505f600554826103a69190611121565b90508042106103b9575f925050506103ca565b42816103c59190611154565b925050505b92915050565b6103d8610b2e565b5f73ffffffffffffffffffffffffffffffffffffffff168273ffffffffffffffffffffffffffffffffffffffff1603610446576040517f08c379a000000000000000000000000000000000000000000000000000000000815260040161043d906111e1565b60405180910390fd5b5f8111610488576040517f08c379a000000000000000000000000000000000000000000000000000000000815260040161047f9061126f565b60405180910390fd5b8160028460405161049991906110de565b90815260200160405180910390205f6101000a81548173ffffffffffffffffffffffffffffffffffffffff021916908373ffffffffffffffffffffffffffffffffffffffff160217905550806003846040516104f591906110de565b9081526020016040518091039020819055507f021066d9f43780503f155e50fc23c3d3ac8ba8edd3fbc3aee45c67ddb5f7078883838360405161053a939291906112c5565b60405180910390a1505050565b61054f610b2e565b6105585f610bb5565b565b5f60055460045f8573ffffffffffffffffffffffffffffffffffffffff1673ffffffffffffffffffffffffffffffffffffffff1681526020019081526020015f20836040516105a991906110de565b9081526020016040518091039020546105c29190611121565b421015905092915050565b6105d5610b2e565b806005819055507f3b897fd6944545fcb6a5d5b058781d763169157f8559ca1a7f3276b981d099718160405161060b9190610ce4565b60405180910390a150565b6002818051602081018201805184825260208301602085012081835280955050505050505f915054906101000a900473ffffffffffffffffffffffffffffffffffffffff1681565b5f5f5f9054906101000a900473ffffffffffffffffffffffffffffffffffffffff16905090565b61068d610c76565b5f73ffffffffffffffffffffffffffffffffffffffff168273ffffffffffffffffffffffffffffffffffffffff16036106fb576040517f08c379a00000000000000000000000000000000000000000000000000000000081526004016106f29061134b565b60405180910390fd5b5f60028260405161070c91906110de565b90815260200160405180910390205f9054906101000a900473ffffffffffffffffffffffffffffffffffffffff1690505f73ffffffffffffffffffffffffffffffffffffffff168173ffffffffffffffffffffffffffffffffffffffff16036107aa576040517f08c379a00000000000000000000000000000000000000000000000000000000081526004016107a1906113b3565b60405180910390fd5b60055460045f8573ffffffffffffffffffffffffffffffffffffffff1673ffffffffffffffffffffffffffffffffffffffff1681526020019081526020015f20836040516107f891906110de565b9081526020016040518091039020546108119190611121565b421015610853576040517f08c379a000000000000000000000000000000000000000000000000000000000815260040161084a90611441565b60405180910390fd5b5f60038360405161086491906110de565b90815260200160405180910390205490505f829050818173ffffffffffffffffffffffffffffffffffffffff166370a08231306040518263ffffffff1660e01b81526004016108b39190611048565b602060405180830381865afa1580156108ce573d5f5f3e3d5ffd5b505050506040513d601f19601f820116820180604052508101906108f29190611473565b1015610933576040517f08c379a000000000000000000000000000000000000000000000000000000000815260040161092a906114e8565b60405180910390fd5b4260045f8773ffffffffffffffffffffffffffffffffffffffff1673ffffffffffffffffffffffffffffffffffffffff1681526020019081526020015f208560405161097f91906110de565b9081526020016040518091039020819055508073ffffffffffffffffffffffffffffffffffffffff1663a9059cbb86846040518363ffffffff1660e01b81526004016109cc929190611506565b6020604051808303815f875af11580156109e8573d5f5f3e3d5ffd5b505050506040513d601f19601f82011682018060405250810190610a0c9190611557565b610a4b576040517f08c379a0000000000000000000000000000000000000000000000000000000008152600401610a42906115cc565b60405180910390fd5b8473ffffffffffffffffffffffffffffffffffffffff167f507581f4d2b7bb21a218396a5cbd6ef103d1222bfb0a4923f50dea4b7d7a98b08584604051610a939291906115ea565b60405180910390a2505050610aa6610cbc565b5050565b610ab2610b2e565b5f73ffffffffffffffffffffffffffffffffffffffff168173ffffffffffffffffffffffffffffffffffffffff1603610b22575f6040517f1e4fbdf7000000000000000000000000000000000000000000000000000000008152600401610b199190611048565b60405180910390fd5b610b2b81610bb5565b50565b610b36610cc5565b73ffffffffffffffffffffffffffffffffffffffff16610b5461065e565b73ffffffffffffffffffffffffffffffffffffffff1614610bb357610b77610cc5565b6040517f118cdaa7000000000000000000000000000000000000000000000000000000008152600401610baa9190611048565b60405180910390fd5b565b5f5f5f9054906101000a900473ffffffffffffffffffffffffffffffffffffffff169050815f5f6101000a81548173ffffffffffffffffffffffffffffffffffffffff021916908373ffffffffffffffffffffffffffffffffffffffff1602179055508173ffffffffffffffffffffffffffffffffffffffff168173ffffffffffffffffffffffffffffffffffffffff167f8be0079c531659141344cd1fd0a4f28419497f9722a3daafe3b4186f6b6457e060405160405180910390a35050565b600260015403610cb2576040517f3ee5aeb500000000000000000000000000000000000000000000000000000000815260040160405180910390fd5b6002600181905550565b60018081905550565b5f33905090565b5f819050919050565b610cde81610ccc565b82525050565b5f602082019050610cf75f830184610cd5565b92915050565b5f604051905090565b5f5ffd5b5f5ffd5b5f5ffd5b5f5ffd5b5f601f19601f8301169050919050565b7f4e487b71000000000000000000000000000000000000000000000000000000005f52604160045260245ffd5b610d5c82610d16565b810181811067ffffffffffffffff82111715610d7b57610d7a610d26565b5b80604052505050565b5f610d8d610cfd565b9050610d998282610d53565b919050565b5f67ffffffffffffffff821115610db857610db7610d26565b5b610dc182610d16565b9050602081019050919050565b828183375f83830152505050565b5f610dee610de984610d9e565b610d84565b905082815260208101848484011115610e0a57610e09610d12565b5b610e15848285610dce565b509392505050565b5f82601f830112610e3157610e30610d0e565b5b8135610e41848260208601610ddc565b91505092915050565b5f60208284031215610e5f57610e5e610d06565b5b5f82013567ffffffffffffffff811115610e7c57610e7b610d0a565b5b610e8884828501610e1d565b91505092915050565b5f73ffffffffffffffffffffffffffffffffffffffff82169050919050565b5f610eba82610e91565b9050919050565b610eca81610eb0565b8114610ed4575f5ffd5b50565b5f81359050610ee581610ec1565b92915050565b5f5f60408385031215610f0157610f00610d06565b5b5f610f0e85828601610ed7565b925050602083013567ffffffffffffffff811115610f2f57610f2e610d0a565b5b610f3b85828601610e1d565b9150509250929050565b610f4e81610ccc565b8114610f58575f5ffd5b50565b5f81359050610f6981610f45565b92915050565b5f5f5f60608486031215610f8657610f85610d06565b5b5f84013567ffffffffffffffff811115610fa357610fa2610d0a565b5b610faf86828701610e1d565b9350506020610fc086828701610ed7565b9250506040610fd186828701610f5b565b9150509250925092565b5f8115159050919050565b610fef81610fdb565b82525050565b5f6020820190506110085f830184610fe6565b92915050565b5f6020828403121561102357611022610d06565b5b5f61103084828501610f5b565b91505092915050565b61104281610eb0565b82525050565b5f60208201905061105b5f830184611039565b92915050565b5f6020828403121561107657611075610d06565b5b5f61108384828501610ed7565b91505092915050565b5f81519050919050565b5f81905092915050565b8281835e5f83830152505050565b5f6110b88261108c565b6110c28185611096565b93506110d28185602086016110a0565b80840191505092915050565b5f6110e982846110ae565b915081905092915050565b7f4e487b71000000000000000000000000000000000000000000000000000000005f52601160045260245ffd5b5f61112b82610ccc565b915061113683610ccc565b925082820190508082111561114e5761114d6110f4565b5b92915050565b5f61115e82610ccc565b915061116983610ccc565b9250828203905081811115611181576111806110f4565b5b92915050565b5f82825260208201905092915050565b7f496e76616c696420746f6b656e206164647265737300000000000000000000005f82015250565b5f6111cb601583611187565b91506111d682611197565b602082019050919050565b5f6020820190508181035f8301526111f8816111bf565b9050919050565b7f4472697020616d6f756e74206d7573742062652067726561746572207468616e5f8201527f2030000000000000000000000000000000000000000000000000000000000000602082015250565b5f611259602283611187565b9150611264826111ff565b604082019050919050565b5f6020820190508181035f8301526112868161124d565b9050919050565b5f6112978261108c565b6112a18185611187565b93506112b18185602086016110a0565b6112ba81610d16565b840191505092915050565b5f6060820190508181035f8301526112dd818661128d565b90506112ec6020830185611039565b6112f96040830184610cd5565b949350505050565b7f496e76616c696420726563697069656e742061646472657373000000000000005f82015250565b5f611335601983611187565b915061134082611301565b602082019050919050565b5f6020820190508181035f83015261136281611329565b9050919050565b7f546f6b656e206e6f7420737570706f72746564000000000000000000000000005f82015250565b5f61139d601383611187565b91506113a882611369565b602082019050919050565b5f6020820190508181035f8301526113ca81611391565b9050919050565b7f506c65617365207761697420666f7220636f6f6c646f776e20706572696f64205f8201527f746f20656e640000000000000000000000000000000000000000000000000000602082015250565b5f61142b602683611187565b9150611436826113d1565b604082019050919050565b5f6020820190508181035f8301526114588161141f565b9050919050565b5f8151905061146d81610f45565b92915050565b5f6020828403121561148857611487610d06565b5b5f6114958482850161145f565b91505092915050565b7f46617563657420697320656d70747900000000000000000000000000000000005f82015250565b5f6114d2600f83611187565b91506114dd8261149e565b602082019050919050565b5f6020820190508181035f8301526114ff816114c6565b9050919050565b5f6040820190506115195f830185611039565b6115266020830184610cd5565b9392505050565b61153681610fdb565b8114611540575f5ffd5b50565b5f815190506115518161152d565b92915050565b5f6020828403121561156c5761156b610d06565b5b5f61157984828501611543565b91505092915050565b7f546f6b656e207472616e73666572206661696c656400000000000000000000005f82015250565b5f6115b6601583611187565b91506115c182611582565b602082019050919050565b5f6020820190508181035f8301526115e3816115aa565b9050919050565b5f6040820190508181035f830152611602818561128d565b90506116116020830184610cd5565b939250505056fea26469706673582212200bb9abab1622ac22c18ca2d57d5fb85cf29a93b4bbf55ddc795b20a173c12c7a64736f6c634300081b0033",
        "nonce": "0x0",
        "chainId": "0x8274f"
      },
      "additionalContracts": [],
      "isFixedGasLimit": false
    },
    {
      "hash": "0x1960c948d432afb69689d7c1be1d155197a12def1f334dfda0ebb78f28d762e6",
      "transactionType": "CALL",
      "contractName": "TestnetFaucet",
      "contractAddress": "0xef1cc9674b940cc3c8a4cc46ea3d05edcb8e9070",
      "function": "addToken(string,address,uint256)",
      "arguments": [
        "WETH",
        "0xb4a583c3Cdf2b76dFE4A848aFce4AA961756c05A",
        "100000000000000000"
      ],
      "transaction": {
        "from": "0x50b2ae1368f058ed5e1e97aea87ff12c01f6210c",
        "to": "0xef1cc9674b940cc3c8a4cc46ea3d05edcb8e9070",
        "gas": "0x1a44b",
        "value": "0x0",
        "input": "0x4bada9610000000000000000000000000000000000000000000000000000000000000060000000000000000000000000b4a583c3cdf2b76dfe4a848afce4aa961756c05a000000000000000000000000000000000000000000000000016345785d8a000000000000000000000000000000000000000000000000000000000000000000045745544800000000000000000000000000000000000000000000000000000000",
        "nonce": "0x1",
        "chainId": "0x8274f"
      },
      "additionalContracts": [],
      "isFixedGasLimit": false
    },
    {
      "hash": "0xb190d493dca48d9cdc9470762497f9c5a13eea59b1aff1cc1000e5f816bf0067",
      "transactionType": "CALL",
      "contractName": "TestnetFaucet",
      "contractAddress": "0xef1cc9674b940cc3c8a4cc46ea3d05edcb8e9070",
      "function": "addToken(string,address,uint256)",
      "arguments": [
        "USDC",
        "0x191825122Cb4150cf91Eb64cFE38025c27547eB6",
        "1000000000"
      ],
      "transaction": {
        "from": "0x50b2ae1368f058ed5e1e97aea87ff12c01f6210c",
        "to": "0xef1cc9674b940cc3c8a4cc46ea3d05edcb8e9070",
        "gas": "0x18cbf",
        "value": "0x0",
        "input": "0x4bada9610000000000000000000000000000000000000000000000000000000000000060000000000000000000000000191825122cb4150cf91eb64cfe38025c27547eb6000000000000000000000000000000000000000000000000000000003b9aca0000000000000000000000000000000000000000000000000000000000000000045553444300000000000000000000000000000000000000000000000000000000",
        "nonce": "0x2",
        "chainId": "0x8274f"
      },
      "additionalContracts": [],
      "isFixedGasLimit": false
    },
    {
      "hash": "0x715a3f5cc87d4e795bdc3180db089fd8516078a03f44bc6fa25cd9e8199591e4",
      "transactionType": "CALL",
      "contractName": "TestnetFaucet",
      "contractAddress": "0xef1cc9674b940cc3c8a4cc46ea3d05edcb8e9070",
      "function": "addToken(string,address,uint256)",
      "arguments": [
        "WBTC",
        "0x7123Dd26c754ea150Af6e8F79a47F35f96D9d8ef",
        "10000000"
      ],
      "transaction": {
        "from": "0x50b2ae1368f058ed5e1e97aea87ff12c01f6210c",
        "to": "0xef1cc9674b940cc3c8a4cc46ea3d05edcb8e9070",
        "gas": "0x18cbf",
        "value": "0x0",
        "input": "0x4bada96100000000000000000000000000000000000000000000000000000000000000600000000000000000000000007123dd26c754ea150af6e8f79a47f35f96d9d8ef000000000000000000000000000000000000000000000000000000000098968000000000000000000000000000000000000000000000000000000000000000045742544300000000000000000000000000000000000000000000000000000000",
        "nonce": "0x3",
        "chainId": "0x8274f"
      },
      "additionalContracts": [],
      "isFixedGasLimit": false
    }
  ],
  "receipts": [
    {
      "status": "0x1",
      "cumulativeGasUsed": "0x14b5fa",
      "logs": [
        {
          "address": "0xef1cc9674b940cc3c8a4cc46ea3d05edcb8e9070",
          "topics": [
            "0x8be0079c531659141344cd1fd0a4f28419497f9722a3daafe3b4186f6b6457e0",
            "0x0000000000000000000000000000000000000000000000000000000000000000",
            "0x00000000000000000000000050b2ae1368f058ed5e1e97aea87ff12c01f6210c"
          ],
          "data": "0x",
          "blockHash": "0xf20f8f450ef04cf4cc46273b65a1b6fbba7a006fe68a3cabf3fd66259d3f5d14",
          "blockNumber": "0x7f2849",
          "transactionHash": "0x93c900909889f56d14313271ec5a201c20f010bc2ea448bdc0d678867b1af20e",
          "transactionIndex": "0x0",
          "logIndex": "0x0",
          "removed": false
        }
      ],
      "logsBloom": "0x00000000000000000000000000000000000000000000000000800000000000000000000000000000000000000000000000000000000000000000000000000000000400000200000000000000000000000001000000000000000000000000000000000000020000000200000000000800000000000000000000010000000000400000000000000000000000000000000000000000000000000000000000000000000000000000000001000000000000000000000000000000000000000000000000000000000000000000000000000000000000000000000000000000000020000000000000000000000000000000000000000000000004000000000000000000",
      "type": "0x0",
      "transactionHash": "0x93c900909889f56d14313271ec5a201c20f010bc2ea448bdc0d678867b1af20e",
      "transactionIndex": "0x0",
      "blockHash": "0xf20f8f450ef04cf4cc46273b65a1b6fbba7a006fe68a3cabf3fd66259d3f5d14",
      "blockNumber": "0x7f2849",
      "gasUsed": "0x14b5fa",
      "effectiveGasPrice": "0x256fd86",
      "from": "0x50b2ae1368f058ed5e1e97aea87ff12c01f6210c",
      "to": null,
      "contractAddress": "0xef1cc9674b940cc3c8a4cc46ea3d05edcb8e9070",
      "l1Fee": "0x12e94e3d78"
    },
    {
      "status": "0x1",
      "cumulativeGasUsed": "0x11f62",
      "logs": [
        {
          "address": "0xef1cc9674b940cc3c8a4cc46ea3d05edcb8e9070",
          "topics": [
            "0x021066d9f43780503f155e50fc23c3d3ac8ba8edd3fbc3aee45c67ddb5f70788"
          ],
          "data": "0x0000000000000000000000000000000000000000000000000000000000000060000000000000000000000000b4a583c3cdf2b76dfe4a848afce4aa961756c05a000000000000000000000000000000000000000000000000016345785d8a000000000000000000000000000000000000000000000000000000000000000000045745544800000000000000000000000000000000000000000000000000000000",
          "blockHash": "0x949ff96c7af6122fbc5ce0558061579b80be05b65262b39a6f06e700b0b5e17a",
          "blockNumber": "0x7f284a",
          "transactionHash": "0x1960c948d432afb69689d7c1be1d155197a12def1f334dfda0ebb78f28d762e6",
          "transactionIndex": "0x0",
          "logIndex": "0x0",
          "removed": false
        }
      ],
      "logsBloom": "0x00000000000000000000000000000000000000000000000000000000000000000000000000000000000000000000000000000000000000000000000000000000000400000000000000000000000000000000000000000000000000000000000000000000000000000200000000010000000000000000000000010000000000000000000000000000000000000000000000000000000000000000000000000000000000000000000000000000000000000000000000000000000000000000000000000000000000000000000000000000800000000000000000000000000000000000000000000000000000000000000000000000000000000000000200000000",
      "type": "0x0",
      "transactionHash": "0x1960c948d432afb69689d7c1be1d155197a12def1f334dfda0ebb78f28d762e6",
      "transactionIndex": "0x0",
      "blockHash": "0x949ff96c7af6122fbc5ce0558061579b80be05b65262b39a6f06e700b0b5e17a",
      "blockNumber": "0x7f284a",
      "gasUsed": "0x11f62",
      "effectiveGasPrice": "0x256fd86",
      "from": "0x50b2ae1368f058ed5e1e97aea87ff12c01f6210c",
      "to": "0xef1cc9674b940cc3c8a4cc46ea3d05edcb8e9070",
      "contractAddress": null,
      "l1Fee": "0x1194163f42"
    },
    {
      "status": "0x1",
      "cumulativeGasUsed": "0x23ea0",
      "logs": [
        {
          "address": "0xef1cc9674b940cc3c8a4cc46ea3d05edcb8e9070",
          "topics": [
            "0x021066d9f43780503f155e50fc23c3d3ac8ba8edd3fbc3aee45c67ddb5f70788"
          ],
          "data": "0x0000000000000000000000000000000000000000000000000000000000000060000000000000000000000000191825122cb4150cf91eb64cfe38025c27547eb6000000000000000000000000000000000000000000000000000000003b9aca0000000000000000000000000000000000000000000000000000000000000000045553444300000000000000000000000000000000000000000000000000000000",
          "blockHash": "0x949ff96c7af6122fbc5ce0558061579b80be05b65262b39a6f06e700b0b5e17a",
          "blockNumber": "0x7f284a",
          "transactionHash": "0xb190d493dca48d9cdc9470762497f9c5a13eea59b1aff1cc1000e5f816bf0067",
          "transactionIndex": "0x1",
          "logIndex": "0x1",
          "removed": false
        }
      ],
      "logsBloom": "0x00000000000000000000000000000000000000000000000000000000000000000000000000000000000000000000000000000000000000000000000000000000000400000000000000000000000000000000000000000000000000000000000000000000000000000200000000010000000000000000000000010000000000000000000000000000000000000000000000000000000000000000000000000000000000000000000000000000000000000000000000000000000000000000000000000000000000000000000000000000800000000000000000000000000000000000000000000000000000000000000000000000000000000000000200000000",
      "type": "0x0",
      "transactionHash": "0xb190d493dca48d9cdc9470762497f9c5a13eea59b1aff1cc1000e5f816bf0067",
      "transactionIndex": "0x1",
      "blockHash": "0x949ff96c7af6122fbc5ce0558061579b80be05b65262b39a6f06e700b0b5e17a",
      "blockNumber": "0x7f284a",
      "gasUsed": "0x11f3e",
      "effectiveGasPrice": "0x256fd86",
      "from": "0x50b2ae1368f058ed5e1e97aea87ff12c01f6210c",
      "to": "0xef1cc9674b940cc3c8a4cc46ea3d05edcb8e9070",
      "contractAddress": null,
      "l1Fee": "0x1194163f42"
    },
    {
      "status": "0x1",
      "cumulativeGasUsed": "0x35dde",
      "logs": [
        {
          "address": "0xef1cc9674b940cc3c8a4cc46ea3d05edcb8e9070",
          "topics": [
            "0x021066d9f43780503f155e50fc23c3d3ac8ba8edd3fbc3aee45c67ddb5f70788"
          ],
          "data": "0x00000000000000000000000000000000000000000000000000000000000000600000000000000000000000007123dd26c754ea150af6e8f79a47f35f96d9d8ef000000000000000000000000000000000000000000000000000000000098968000000000000000000000000000000000000000000000000000000000000000045742544300000000000000000000000000000000000000000000000000000000",
          "blockHash": "0x949ff96c7af6122fbc5ce0558061579b80be05b65262b39a6f06e700b0b5e17a",
          "blockNumber": "0x7f284a",
          "transactionHash": "0x715a3f5cc87d4e795bdc3180db089fd8516078a03f44bc6fa25cd9e8199591e4",
          "transactionIndex": "0x2",
          "logIndex": "0x2",
          "removed": false
        }
      ],
      "logsBloom": "0x00000000000000000000000000000000000000000000000000000000000000000000000000000000000000000000000000000000000000000000000000000000000400000000000000000000000000000000000000000000000000000000000000000000000000000200000000010000000000000000000000010000000000000000000000000000000000000000000000000000000000000000000000000000000000000000000000000000000000000000000000000000000000000000000000000000000000000000000000000000800000000000000000000000000000000000000000000000000000000000000000000000000000000000000200000000",
      "type": "0x0",
      "transactionHash": "0x715a3f5cc87d4e795bdc3180db089fd8516078a03f44bc6fa25cd9e8199591e4",
      "transactionIndex": "0x2",
      "blockHash": "0x949ff96c7af6122fbc5ce0558061579b80be05b65262b39a6f06e700b0b5e17a",
      "blockNumber": "0x7f284a",
      "gasUsed": "0x11f3e",
      "effectiveGasPrice": "0x256fd86",
      "from": "0x50b2ae1368f058ed5e1e97aea87ff12c01f6210c",
      "to": "0xef1cc9674b940cc3c8a4cc46ea3d05edcb8e9070",
      "contractAddress": null,
      "l1Fee": "0x1194163f42"
    }
  ],
  "libraries": [],
  "pending": [],
  "returns": {},
  "timestamp": 1740622113,
  "chain": 534351,
  "commit": "eccbb9d"
}