{
  "transactions": [
    {
      "hash": "0x720740d393e04cd0283b7ef3183ca22096a6c38d36bd6d48a4cddcaccd4079b3",
      "transactionType": "CALL",
      "contractName": null,
      "contractAddress": "0xef1cc9674b940cc3c8a4cc46ea3d05edcb8e9070",
      "function": "addToken(string,address,uint256)",
      "arguments": [
        "WBTC",
        "0x7123Dd26c754ea150Af6e8F79a47F35f96D9d8ef",
        "100000000000000000"
      ],
      "transaction": {
        "from": "0x50b2ae1368f058ed5e1e97aea87ff12c01f6210c",
        "to": "0xef1cc9674b940cc3c8a4cc46ea3d05edcb8e9070",
        "gas": "0xd0eb",
        "value": "0x0",
        "input": "0x4bada96100000000000000000000000000000000000000000000000000000000000000600000000000000000000000007123dd26c754ea150af6e8f79a47f35f96d9d8ef000000000000000000000000000000000000000000000000016345785d8a000000000000000000000000000000000000000000000000000000000000000000045742544300000000000000000000000000000000000000000000000000000000",
        "nonce": "0xb",
        "chainId": "0x8274f"
      },
      "additionalContracts": [],
      "isFixedGasLimit": false
    }
  ],
  "receipts": [
    {
      "status": "0x1",
      "cumulativeGasUsed": "0x8eda",
      "logs": [
        {
          "address": "0xef1cc9674b940cc3c8a4cc46ea3d05edcb8e9070",
          "topics": [
            "0x021066d9f43780503f155e50fc23c3d3ac8ba8edd3fbc3aee45c67ddb5f70788"
          ],
          "data": "0x00000000000000000000000000000000000000000000000000000000000000600000000000000000000000007123dd26c754ea150af6e8f79a47f35f96d9d8ef000000000000000000000000000000000000000000000000016345785d8a000000000000000000000000000000000000000000000000000000000000000000045742544300000000000000000000000000000000000000000000000000000000",
          "blockHash": "0x9f3149287d5f755744fd19ac1b9e03c4b903009dae24920df629ba41432950b5",
          "blockNumber": "0x7f2a5b",
          "transactionHash": "0x720740d393e04cd0283b7ef3183ca22096a6c38d36bd6d48a4cddcaccd4079b3",
          "transactionIndex": "0x0",
          "logIndex": "0x0",
          "removed": false
        }
      ],
      "logsBloom": "0x00000000000000000000000000000000000000000000000000000000000000000000000000000000000000000000000000000000000000000000000000000000000400000000000000000000000000000000000000000000000000000000000000000000000000000200000000010000000000000000000000010000000000000000000000000000000000000000000000000000000000000000000000000000000000000000000000000000000000000000000000000000000000000000000000000000000000000000000000000000800000000000000000000000000000000000000000000000000000000000000000000000000000000000000200000000",
      "type": "0x0",
      "transactionHash": "0x720740d393e04cd0283b7ef3183ca22096a6c38d36bd6d48a4cddcaccd4079b3",
      "transactionIndex": "0x0",
      "blockHash": "0x9f3149287d5f755744fd19ac1b9e03c4b903009dae24920df629ba41432950b5",
      "blockNumber": "0x7f2a5b",
      "gasUsed": "0x8eda",
      "effectiveGasPrice": "0x25717ed",
      "from": "0x50b2ae1368f058ed5e1e97aea87ff12c01f6210c",
      "to": "0xef1cc9674b940cc3c8a4cc46ea3d05edcb8e9070",
      "contractAddress": null,
      "l1Fee": "0x12ee7f8c53"
    }
  ],
  "libraries": [],
  "pending": [],
  "returns": {},
  "timestamp": 1740626413,
  "chain": 534351,
  "commit": "f54f965"
}