{
  "transactions": [
    {
      "hash": "0x08cfcc0600428011dc0fa5639aabcf042d25671a86596a323f91b6dae7b8ce3d",
      "transactionType": "CALL",
      "contractName": null,
      "contractAddress": "0x9959f02663b7c7ba0ed578613136f15fd56c67e8",
      "function": "mint(address,uint256)",
      "arguments": [
        "0xef1cc9674b940cc3C8A4Cc46ea3D05eDCb8e9070",
        "1000000000000000000000000"
      ],
      "transaction": {
        "from": "0x50b2ae1368f058ed5e1e97aea87ff12c01f6210c",
        "to": "0x9959f02663b7c7ba0ed578613136f15fd56c67e8",
        "gas": "0x1134a",
        "value": "0x0",
        "input": "0x40c10f19000000000000000000000000ef1cc9674b940cc3c8a4cc46ea3d05edcb8e907000000000000000000000000000000000000000000000d3c21bcecceda1000000",
        "nonce": "0x1a",
        "chainId": "0x8274f"
      },
      "additionalContracts": [],
      "isFixedGasLimit": false
    },
    {
      "hash": "0x7524867da4fd6e179ebefad3269e9d5ae92477223b60ccba1476dcbbad78622e",
      "transactionType": "CALL",
      "contractName": null,
      "contractAddress": "0x7db192afb86b887ba39b7f7d058d21534a88bd3c",
      "function": "mint(address,uint256)",
      "arguments": [
        "0xef1cc9674b940cc3C8A4Cc46ea3D05eDCb8e9070",
        "100000000000000000000000000"
      ],
      "transaction": {
        "from": "0x50b2ae1368f058ed5e1e97aea87ff12c01f6210c",
        "to": "0x7db192afb86b887ba39b7f7d058d21534a88bd3c",
        "gas": "0x1238e",
        "value": "0x0",
        "input": "0x40c10f19000000000000000000000000ef1cc9674b940cc3c8a4cc46ea3d05edcb8e907000000000000000000000000000000000000000000052b7d2dcc80cd2e4000000",
        "nonce": "0x1b",
        "chainId": "0x8274f"
      },
      "additionalContracts": [],
      "isFixedGasLimit": false
    },
    {
      "hash": "0x6a9bacb72d6419149796203f743bb0af0b260dd49a235bedb5a8b9ea09602f26",
      "transactionType": "CALL",
      "contractName": null,
      "contractAddress": "0xf9091c04901d2501ea170d266bed70f04c65d32a",
      "function": "mint(address,uint256)",
      "arguments": [
        "0xef1cc9674b940cc3C8A4Cc46ea3D05eDCb8e9070",
        "1000000000000000000000000"
      ],
      "transaction": {
        "from": "0x50b2ae1368f058ed5e1e97aea87ff12c01f6210c",
        "to": "0xf9091c04901d2501ea170d266bed70f04c65d32a",
        "gas": "0x1134a",
        "value": "0x0",
        "input": "0x40c10f19000000000000000000000000ef1cc9674b940cc3c8a4cc46ea3d05edcb8e907000000000000000000000000000000000000000000000d3c21bcecceda1000000",
        "nonce": "0x1c",
        "chainId": "0x8274f"
      },
      "additionalContracts": [],
      "isFixedGasLimit": false
    },
    {
      "hash": "0xc4d68a7810ef339b77b9eeae653a70f31c6dada18a1577384cad12e002e0b114",
      "transactionType": "CALL",
      "contractName": null,
      "contractAddress": "0xef1cc9674b940cc3c8a4cc46ea3d05edcb8e9070",
      "function": "addToken(string,address,uint256)",
      "arguments": [
        "WETH",
        "0x9959f02663B7c7BA0ED578613136F15FD56C67E8",
        "100000000000000000"
      ],
      "transaction": {
        "from": "0x50b2ae1368f058ed5e1e97aea87ff12c01f6210c",
        "to": "0xef1cc9674b940cc3c8a4cc46ea3d05edcb8e9070",
        "gas": "0xd0eb",
        "value": "0x0",
        "input": "0x4bada96100000000000000000000000000000000000000000000000000000000000000600000000000000000000000009959f02663b7c7ba0ed578613136f15fd56c67e8000000000000000000000000000000000000000000000000016345785d8a000000000000000000000000000000000000000000000000000000000000000000045745544800000000000000000000000000000000000000000000000000000000",
        "nonce": "0x1d",
        "chainId": "0x8274f"
      },
      "additionalContracts": [],
      "isFixedGasLimit": false
    },
    {
      "hash": "0xa2ab830502c6364b428991c63ec20c0e45e552f45551d65b5c852dcf22f995c8",
      "transactionType": "CALL",
      "contractName": null,
      "contractAddress": "0xef1cc9674b940cc3c8a4cc46ea3d05edcb8e9070",
      "function": "addToken(string,address,uint256)",
      "arguments": [
        "USDC",
        "0x7DB192Afb86B887BA39B7f7d058d21534A88BD3C",
        "1000000000"
      ],
      "transaction": {
        "from": "0x50b2ae1368f058ed5e1e97aea87ff12c01f6210c",
        "to": "0xef1cc9674b940cc3c8a4cc46ea3d05edcb8e9070",
        "gas": "0xc51e",
        "value": "0x0",
        "input": "0x4bada96100000000000000000000000000000000000000000000000000000000000000600000000000000000000000007db192afb86b887ba39b7f7d058d21534a88bd3c000000000000000000000000000000000000000000000000000000003b9aca0000000000000000000000000000000000000000000000000000000000000000045553444300000000000000000000000000000000000000000000000000000000",
        "nonce": "0x1e",
        "chainId": "0x8274f"
      },
      "additionalContracts": [],
      "isFixedGasLimit": false
    },
    {
      "hash": "0x23f9917e78910228a00f5d71419fed83265506bb4a0b22269ddca7a3ae8cef05",
      "transactionType": "CALL",
      "contractName": null,
      "contractAddress": "0xef1cc9674b940cc3c8a4cc46ea3d05edcb8e9070",
      "function": "addToken(string,address,uint256)",
      "arguments": [
        "WBTC",
        "0xF9091C04901d2501EA170D266Bed70F04c65d32A",
        "10000000"
      ],
      "transaction": {
        "from": "0x50b2ae1368f058ed5e1e97aea87ff12c01f6210c",
        "to": "0xef1cc9674b940cc3c8a4cc46ea3d05edcb8e9070",
        "gas": "0xd439",
        "value": "0x0",
        "input": "0x4bada9610000000000000000000000000000000000000000000000000000000000000060000000000000000000000000f9091c04901d2501ea170d266bed70f04c65d32a000000000000000000000000000000000000000000000000000000000098968000000000000000000000000000000000000000000000000000000000000000045742544300000000000000000000000000000000000000000000000000000000",
        "nonce": "0x1f",
        "chainId": "0x8274f"
      },
      "additionalContracts": [],
      "isFixedGasLimit": false
    }
  ],
  "receipts": [
    {
      "status": "0x1",
      "cumulativeGasUsed": "0xc74f",
      "logs": [
        {
          "address": "0x9959f02663b7c7ba0ed578613136f15fd56c67e8",
          "topics": [
            "0xddf252ad1be2c89b69c2b068fc378daa952ba7f163c4a11628f55a4df523b3ef",
            "0x0000000000000000000000000000000000000000000000000000000000000000",
            "0x000000000000000000000000ef1cc9674b940cc3c8a4cc46ea3d05edcb8e9070"
          ],
          "data": "0x00000000000000000000000000000000000000000000d3c21bcecceda1000000",
          "blockHash": "0x932a0e602716726cf65abace7031b08f75078c78686af64b444cc3be0229182e",
          "blockNumber": "0x7f4e20",
          "transactionHash": "0x08cfcc0600428011dc0fa5639aabcf042d25671a86596a323f91b6dae7b8ce3d",
          "transactionIndex": "0x0",
          "logIndex": "0x0",
          "removed": false
        }
      ],
      "logsBloom": "0x00000000000000000000000000000000000000000000000000008000000000000000000000000000000100000000000000000000000000002000000000002000000000000000000000000008000000000000000000000000000000000000000000000000020000000000000000000800000000000000000000000010000000000000000000000000000000000000000000000000000000000000000000000000000000000000000000000000000000000000000000000000000000000000000000000002000000010000000000000000000000000000000000000000000020000000000000000000000000000000000000000000000000000000000000020000",
      "type": "0x2",
      "transactionHash": "0x08cfcc0600428011dc0fa5639aabcf042d25671a86596a323f91b6dae7b8ce3d",
      "transactionIndex": "0x0",
      "blockHash": "0x932a0e602716726cf65abace7031b08f75078c78686af64b444cc3be0229182e",
      "blockNumber": "0x7f4e20",
      "gasUsed": "0xc74f",
      "effectiveGasPrice": "0x25712d9",
      "from": "0x50b2ae1368f058ed5e1e97aea87ff12c01f6210c",
      "to": "0x9959f02663b7c7ba0ed578613136f15fd56c67e8",
      "contractAddress": null,
      "l1Fee": "0x24a1a8b480"
    },
    {
      "status": "0x1",
      "cumulativeGasUsed": "0xc75b",
      "logs": [
        {
          "address": "0x7db192afb86b887ba39b7f7d058d21534a88bd3c",
          "topics": [
            "0xddf252ad1be2c89b69c2b068fc378daa952ba7f163c4a11628f55a4df523b3ef",
            "0x0000000000000000000000000000000000000000000000000000000000000000",
            "0x000000000000000000000000ef1cc9674b940cc3c8a4cc46ea3d05edcb8e9070"
          ],
          "data": "0x00000000000000000000000000000000000000000052b7d2dcc80cd2e4000000",
          "blockHash": "0x84c82fc28dd386b4f384096858f4c5c024c0758b29f2e9dd570ccb0028b69f78",
          "blockNumber": "0x7f4e21",
          "transactionHash": "0x7524867da4fd6e179ebefad3269e9d5ae92477223b60ccba1476dcbbad78622e",
          "transactionIndex": "0x0",
          "logIndex": "0x0",
          "removed": false
        }
      ],
      "logsBloom": "0x00000000000010000000000000000000000000000000000000000000000000000000000000000000000100000000000000000000000000000000000000002000000000000000000000000008000000000000000000000000000000000000000000000000020000000000000000000800000000000000000000000010000000000000000000000000000000000000000000000200000000000000000000000000000000000000000000000000000000000000000000000000000000000000000000000002020000000000000000000000000000000000000000000000000020000000000000000000000000000000000000000000000000000000000000020000",
      "type": "0x2",
      "transactionHash": "0x7524867da4fd6e179ebefad3269e9d5ae92477223b60ccba1476dcbbad78622e",
      "transactionIndex": "0x0",
      "blockHash": "0x84c82fc28dd386b4f384096858f4c5c024c0758b29f2e9dd570ccb0028b69f78",
      "blockNumber": "0x7f4e21",
      "gasUsed": "0xc75b",
      "effectiveGasPrice": "0x25712d9",
      "from": "0x50b2ae1368f058ed5e1e97aea87ff12c01f6210c",
      "to": "0x7db192afb86b887ba39b7f7d058d21534a88bd3c",
      "contractAddress": null,
      "l1Fee": "0x24a1a8b480"
    },
    {
      "status": "0x1",
      "cumulativeGasUsed": "0x18eaa",
      "logs": [
        {
          "address": "0xf9091c04901d2501ea170d266bed70f04c65d32a",
          "topics": [
            "0xddf252ad1be2c89b69c2b068fc378daa952ba7f163c4a11628f55a4df523b3ef",
            "0x0000000000000000000000000000000000000000000000000000000000000000",
            "0x000000000000000000000000ef1cc9674b940cc3c8a4cc46ea3d05edcb8e9070"
          ],
          "data": "0x00000000000000000000000000000000000000000000d3c21bcecceda1000000",
          "blockHash": "0x84c82fc28dd386b4f384096858f4c5c024c0758b29f2e9dd570ccb0028b69f78",
          "blockNumber": "0x7f4e21",
          "transactionHash": "0x6a9bacb72d6419149796203f743bb0af0b260dd49a235bedb5a8b9ea09602f26",
          "transactionIndex": "0x1",
          "logIndex": "0x1",
          "removed": false
        }
      ],
      "logsBloom": "0x00000000000000000000000000000000000000000000000000000000000000000000000000000000000100000000000000000000000000000000000000002000000000000000000000000008000000000000000000000000000000000000000000000000020010000000000000000800000010000000000000000010000000000000000000000000000000000000000000000000000000000000000000000000000000000000000000000000000000000000000000000000000000000000000000000002000000000000000000000000000000000000000000000000000020000000800000000000000000000000000000000000000000000000000000020000",
      "type": "0x2",
      "transactionHash": "0x6a9bacb72d6419149796203f743bb0af0b260dd49a235bedb5a8b9ea09602f26",
      "transactionIndex": "0x1",
      "blockHash": "0x84c82fc28dd386b4f384096858f4c5c024c0758b29f2e9dd570ccb0028b69f78",
      "blockNumber": "0x7f4e21",
      "gasUsed": "0xc74f",
      "effectiveGasPrice": "0x25712d9",
      "from": "0x50b2ae1368f058ed5e1e97aea87ff12c01f6210c",
      "to": "0xf9091c04901d2501ea170d266bed70f04c65d32a",
      "contractAddress": null,
      "l1Fee": "0x24a1a8b480"
    },
    {
      "status": "0x1",
      "cumulativeGasUsed": "0x21d84",
      "logs": [
        {
          "address": "0xef1cc9674b940cc3c8a4cc46ea3d05edcb8e9070",
          "topics": [
            "0x021066d9f43780503f155e50fc23c3d3ac8ba8edd3fbc3aee45c67ddb5f70788"
          ],
          "data": "0x00000000000000000000000000000000000000000000000000000000000000600000000000000000000000009959f02663b7c7ba0ed578613136f15fd56c67e8000000000000000000000000000000000000000000000000016345785d8a000000000000000000000000000000000000000000000000000000000000000000045745544800000000000000000000000000000000000000000000000000000000",
          "blockHash": "0x84c82fc28dd386b4f384096858f4c5c024c0758b29f2e9dd570ccb0028b69f78",
          "blockNumber": "0x7f4e21",
          "transactionHash": "0xc4d68a7810ef339b77b9eeae653a70f31c6dada18a1577384cad12e002e0b114",
          "transactionIndex": "0x2",
          "logIndex": "0x2",
          "removed": false
        }
      ],
      "logsBloom": "0x00000000000000000000000000000000000000000000000000000000000000000000000000000000000000000000000000000000000000000000000000000000000400000000000000000000000000000000000000000000000000000000000000000000000000000200000000010000000000000000000000010000000000000000000000000000000000000000000000000000000000000000000000000000000000000000000000000000000000000000000000000000000000000000000000000000000000000000000000000000800000000000000000000000000000000000000000000000000000000000000000000000000000000000000200000000",
      "type": "0x2",
      "transactionHash": "0xc4d68a7810ef339b77b9eeae653a70f31c6dada18a1577384cad12e002e0b114",
      "transactionIndex": "0x2",
      "blockHash": "0x84c82fc28dd386b4f384096858f4c5c024c0758b29f2e9dd570ccb0028b69f78",
      "blockNumber": "0x7f4e21",
      "gasUsed": "0x8eda",
      "effectiveGasPrice": "0x25712d9",
      "from": "0x50b2ae1368f058ed5e1e97aea87ff12c01f6210c",
      "to": "0xef1cc9674b940cc3c8a4cc46ea3d05edcb8e9070",
      "contractAddress": null,
      "l1Fee": "0x2e06b09f36"
    },
    {
      "status": "0x1",
      "cumulativeGasUsed": "0x2ac3a",
      "logs": [
        {
          "address": "0xef1cc9674b940cc3c8a4cc46ea3d05edcb8e9070",
          "topics": [
            "0x021066d9f43780503f155e50fc23c3d3ac8ba8edd3fbc3aee45c67ddb5f70788"
          ],
          "data": "0x00000000000000000000000000000000000000000000000000000000000000600000000000000000000000007db192afb86b887ba39b7f7d058d21534a88bd3c000000000000000000000000000000000000000000000000000000003b9aca0000000000000000000000000000000000000000000000000000000000000000045553444300000000000000000000000000000000000000000000000000000000",
          "blockHash": "0x84c82fc28dd386b4f384096858f4c5c024c0758b29f2e9dd570ccb0028b69f78",
          "blockNumber": "0x7f4e21",
          "transactionHash": "0xa2ab830502c6364b428991c63ec20c0e45e552f45551d65b5c852dcf22f995c8",
          "transactionIndex": "0x3",
          "logIndex": "0x3",
          "removed": false
        }
      ],
      "logsBloom": "0x00000000000000000000000000000000000000000000000000000000000000000000000000000000000000000000000000000000000000000000000000000000000400000000000000000000000000000000000000000000000000000000000000000000000000000200000000010000000000000000000000010000000000000000000000000000000000000000000000000000000000000000000000000000000000000000000000000000000000000000000000000000000000000000000000000000000000000000000000000000800000000000000000000000000000000000000000000000000000000000000000000000000000000000000200000000",
      "type": "0x2",
      "transactionHash": "0xa2ab830502c6364b428991c63ec20c0e45e552f45551d65b5c852dcf22f995c8",
      "transactionIndex": "0x3",
      "blockHash": "0x84c82fc28dd386b4f384096858f4c5c024c0758b29f2e9dd570ccb0028b69f78",
      "blockNumber": "0x7f4e21",
      "gasUsed": "0x8eb6",
      "effectiveGasPrice": "0x25712d9",
      "from": "0x50b2ae1368f058ed5e1e97aea87ff12c01f6210c",
      "to": "0xef1cc9674b940cc3c8a4cc46ea3d05edcb8e9070",
      "contractAddress": null,
      "l1Fee": "0x2e06b09f36"
    },
    {
      "status": "0x1",
      "cumulativeGasUsed": "0x345e0",
      "logs": [
        {
          "address": "0xef1cc9674b940cc3c8a4cc46ea3d05edcb8e9070",
          "topics": [
            "0x021066d9f43780503f155e50fc23c3d3ac8ba8edd3fbc3aee45c67ddb5f70788"
          ],
          "data": "0x0000000000000000000000000000000000000000000000000000000000000060000000000000000000000000f9091c04901d2501ea170d266bed70f04c65d32a000000000000000000000000000000000000000000000000000000000098968000000000000000000000000000000000000000000000000000000000000000045742544300000000000000000000000000000000000000000000000000000000",
          "blockHash": "0x84c82fc28dd386b4f384096858f4c5c024c0758b29f2e9dd570ccb0028b69f78",
          "blockNumber": "0x7f4e21",
          "transactionHash": "0x23f9917e78910228a00f5d71419fed83265506bb4a0b22269ddca7a3ae8cef05",
          "transactionIndex": "0x4",
          "logIndex": "0x4",
          "removed": false
        }
      ],
      "logsBloom": "0x00000000000000000000000000000000000000000000000000000000000000000000000000000000000000000000000000000000000000000000000000000000000400000000000000000000000000000000000000000000000000000000000000000000000000000200000000010000000000000000000000010000000000000000000000000000000000000000000000000000000000000000000000000000000000000000000000000000000000000000000000000000000000000000000000000000000000000000000000000000800000000000000000000000000000000000000000000000000000000000000000000000000000000000000200000000",
      "type": "0x2",
      "transactionHash": "0x23f9917e78910228a00f5d71419fed83265506bb4a0b22269ddca7a3ae8cef05",
      "transactionIndex": "0x4",
      "blockHash": "0x84c82fc28dd386b4f384096858f4c5c024c0758b29f2e9dd570ccb0028b69f78",
      "blockNumber": "0x7f4e21",
      "gasUsed": "0x99a6",
      "effectiveGasPrice": "0x25712d9",
      "from": "0x50b2ae1368f058ed5e1e97aea87ff12c01f6210c",
      "to": "0xef1cc9674b940cc3c8a4cc46ea3d05edcb8e9070",
      "contractAddress": null,
      "l1Fee": "0x2e06b09f36"
    }
  ],
  "libraries": [],
  "pending": [],
  "returns": {},
  "timestamp": 1740699374,
  "chain": 534351,
  "commit": "317e4a9"
}