{
  "transactions": [
    {
      "hash": "0x817d4b5f15f711fe5dd15053f892420efa418d2a09e4793b5803f908e449f293",
      "transactionType": "CALL",
      "contractName": null,
      "contractAddress": "0xb4a583c3cdf2b76dfe4a848afce4aa961756c05a",
      "function": "mint(address,uint256)",
      "arguments": [
        "0xef1cc9674b940cc3C8A4Cc46ea3D05eDCb8e9070",
        "1000000000000000000000000"
      ],
      "transaction": {
        "from": "0x50b2ae1368f058ed5e1e97aea87ff12c01f6210c",
        "to": "0xb4a583c3cdf2b76dfe4a848afce4aa961756c05a",
        "gas": "0x1134a",
        "value": "0x0",
        "input": "0x40c10f19000000000000000000000000ef1cc9674b940cc3c8a4cc46ea3d05edcb8e907000000000000000000000000000000000000000000000d3c21bcecceda1000000",
        "nonce": "0x4",
        "chainId": "0x8274f"
      },
      "additionalContracts": [],
      "isFixedGasLimit": false
    },
    {
      "hash": "0x40e08cb731317831cbc36e0b44d72728a34ee2537bc4d7f17d6b6575b8acd4af",
      "transactionType": "CALL",
      "contractName": null,
      "contractAddress": "0x191825122cb4150cf91eb64cfe38025c27547eb6",
      "function": "mint(address,uint256)",
      "arguments": [
        "0xef1cc9674b940cc3C8A4Cc46ea3D05eDCb8e9070",
        "100000000000000000000000000"
      ],
      "transaction": {
        "from": "0x50b2ae1368f058ed5e1e97aea87ff12c01f6210c",
        "to": "0x191825122cb4150cf91eb64cfe38025c27547eb6",
        "gas": "0x1238e",
        "value": "0x0",
        "input": "0x40c10f19000000000000000000000000ef1cc9674b940cc3c8a4cc46ea3d05edcb8e907000000000000000000000000000000000000000000052b7d2dcc80cd2e4000000",
        "nonce": "0x5",
        "chainId": "0x8274f"
      },
      "additionalContracts": [],
      "isFixedGasLimit": false
    },
    {
      "hash": "0x25c46a4d95e6d59c2ade56b758f6d294c9e43ae117cffa943964e35dbadb92d8",
      "transactionType": "CALL",
      "contractName": null,
      "contractAddress": "0x7123dd26c754ea150af6e8f79a47f35f96d9d8ef",
      "function": "mint(address,uint256)",
      "arguments": [
        "0xef1cc9674b940cc3C8A4Cc46ea3D05eDCb8e9070",
        "100000000000000"
      ],
      "transaction": {
        "from": "0x50b2ae1368f058ed5e1e97aea87ff12c01f6210c",
        "to": "0x7123dd26c754ea150af6e8f79a47f35f96d9d8ef",
        "gas": "0x11329",
        "value": "0x0",
        "input": "0x40c10f19000000000000000000000000ef1cc9674b940cc3c8a4cc46ea3d05edcb8e907000000000000000000000000000000000000000000000000000005af3107a4000",
        "nonce": "0x6",
        "chainId": "0x8274f"
      },
      "additionalContracts": [],
      "isFixedGasLimit": false
    }
  ],
  "receipts": [
    {
      "status": "0x1",
      "cumulativeGasUsed": "0xc74f",
      "logs": [
        {
          "address": "0xb4a583c3cdf2b76dfe4a848afce4aa961756c05a",
          "topics": [
            "0xddf252ad1be2c89b69c2b068fc378daa952ba7f163c4a11628f55a4df523b3ef",
            "0x0000000000000000000000000000000000000000000000000000000000000000",
            "0x000000000000000000000000ef1cc9674b940cc3c8a4cc46ea3d05edcb8e9070"
          ],
          "data": "0x00000000000000000000000000000000000000000000d3c21bcecceda1000000",
          "blockHash": "0x757644ffc650eae6b985660f1fcbeada59d201cbbfdcc379024d819b5c4357b9",
          "blockNumber": "0x7f2902",
          "transactionHash": "0x817d4b5f15f711fe5dd15053f892420efa418d2a09e4793b5803f908e449f293",
          "transactionIndex": "0x0",
          "logIndex": "0x0",
          "removed": false
        }
      ],
      "logsBloom": "0x00000000000000000000000000000000000000000000000000000000000000000000000000000000000100000000000000000000000000000000000000002000000000000000000000000008000000000000000000000000000000000000000000000000020000000000000000000800000000000000000000000010000000000000000000000000000000000000000000000000000000000001000000008000000000000000000000000000000000000000000000000000000000000000000000000002000000000000000000000000000000000000000000000000000020000020000000000000000000000000000000000000000000000000000000020000",
      "type": "0x0",
      "transactionHash": "0x817d4b5f15f711fe5dd15053f892420efa418d2a09e4793b5803f908e449f293",
      "transactionIndex": "0x0",
      "blockHash": "0x757644ffc650eae6b985660f1fcbeada59d201cbbfdcc379024d819b5c4357b9",
      "blockNumber": "0x7f2902",
      "gasUsed": "0xc74f",
      "effectiveGasPrice": "0x25706f1",
      "from": "0x50b2ae1368f058ed5e1e97aea87ff12c01f6210c",
      "to": "0xb4a583c3cdf2b76dfe4a848afce4aa961756c05a",
      "contractAddress": null,
      "l1Fee": "0x11f4c895d7"
    },
    {
      "status": "0x1",
      "cumulativeGasUsed": "0x18eaa",
      "logs": [
        {
          "address": "0x191825122cb4150cf91eb64cfe38025c27547eb6",
          "topics": [
            "0xddf252ad1be2c89b69c2b068fc378daa952ba7f163c4a11628f55a4df523b3ef",
            "0x0000000000000000000000000000000000000000000000000000000000000000",
            "0x000000000000000000000000ef1cc9674b940cc3c8a4cc46ea3d05edcb8e9070"
          ],
          "data": "0x00000000000000000000000000000000000000000052b7d2dcc80cd2e4000000",
          "blockHash": "0x757644ffc650eae6b985660f1fcbeada59d201cbbfdcc379024d819b5c4357b9",
          "blockNumber": "0x7f2902",
          "transactionHash": "0x40e08cb731317831cbc36e0b44d72728a34ee2537bc4d7f17d6b6575b8acd4af",
          "transactionIndex": "0x1",
          "logIndex": "0x1",
          "removed": false
        }
      ],
      "logsBloom": "0x00000000000000000000000000000000000000000000000000000000000000000000000000000000000100000000000000000040080000000000000000002000000000000000000000000008000000000000000000000000000000000000000000000000020000000000000000000800000000000000000000000010000000000000000000000000000000000000000000000000000000000000000000000000000000000000000000000000000000000000000000000000000000000000000000000002000000000000000000000000000000000000000000000000000020000000000002000000000000000000000000000000000000000000000000020000",
      "type": "0x0",
      "transactionHash": "0x40e08cb731317831cbc36e0b44d72728a34ee2537bc4d7f17d6b6575b8acd4af",
      "transactionIndex": "0x1",
      "blockHash": "0x757644ffc650eae6b985660f1fcbeada59d201cbbfdcc379024d819b5c4357b9",
      "blockNumber": "0x7f2902",
      "gasUsed": "0xc75b",
      "effectiveGasPrice": "0x25706f1",
      "from": "0x50b2ae1368f058ed5e1e97aea87ff12c01f6210c",
      "to": "0x191825122cb4150cf91eb64cfe38025c27547eb6",
      "contractAddress": null,
      "l1Fee": "0x11f4c895d7"
    },
    {
      "status": "0x1",
      "cumulativeGasUsed": "0x255e1",
      "logs": [
        {
          "address": "0x7123dd26c754ea150af6e8f79a47f35f96d9d8ef",
          "topics": [
            "0xddf252ad1be2c89b69c2b068fc378daa952ba7f163c4a11628f55a4df523b3ef",
            "0x0000000000000000000000000000000000000000000000000000000000000000",
            "0x000000000000000000000000ef1cc9674b940cc3c8a4cc46ea3d05edcb8e9070"
          ],
          "data": "0x00000000000000000000000000000000000000000000000000005af3107a4000",
          "blockHash": "0x757644ffc650eae6b985660f1fcbeada59d201cbbfdcc379024d819b5c4357b9",
          "blockNumber": "0x7f2902",
          "transactionHash": "0x25c46a4d95e6d59c2ade56b758f6d294c9e43ae117cffa943964e35dbadb92d8",
          "transactionIndex": "0x2",
          "logIndex": "0x2",
          "removed": false
        }
      ],
      "logsBloom": "0x00000000000000000000000000000000000000000400000000000000000000000000000000000800000100000000000000000000000000000000000000002000000000000000000000000008000000000000000000000000000008000000000000000000020000000000000000000800000000000000000000000010000000000000000000000000000000000000000000000000000000000000000000000000000000000000000000000000000000000000000000000000000000000000000000000002000000000000000000000000000000000000000000000000000020000000000000000000000000000000000000000000000000000000000000020000",
      "type": "0x0",
      "transactionHash": "0x25c46a4d95e6d59c2ade56b758f6d294c9e43ae117cffa943964e35dbadb92d8",
      "transactionIndex": "0x2",
      "blockHash": "0x757644ffc650eae6b985660f1fcbeada59d201cbbfdcc379024d819b5c4357b9",
      "blockNumber": "0x7f2902",
      "gasUsed": "0xc737",
      "effectiveGasPrice": "0x25706f1",
      "from": "0x50b2ae1368f058ed5e1e97aea87ff12c01f6210c",
      "to": "0x7123dd26c754ea150af6e8f79a47f35f96d9d8ef",
      "contractAddress": null,
      "l1Fee": "0x11f4c895d7"
    }
  ],
  "libraries": [],
  "pending": [],
  "returns": {},
  "timestamp": 1740623585,
  "chain": 534351,
  "commit": "eccbb9d"
}