{
  "transactions": [
    {
      "hash": "0xfe7ef2038d3c68de4fa9f7c7411a7200977714e6fc2932dfafdf1d44e1283dae",
      "transactionType": "CALL",
      "contractName": null,
      "contractAddress": "0xef1cc9674b940cc3c8a4cc46ea3d05edcb8e9070",
      "function": "addToken(string,address,uint256)",
      "arguments": [
        "WBTC",
        "0x7123Dd26c754ea150Af6e8F79a47F35f96D9d8ef",
        "10000000000000000"
      ],
      "transaction": {
        "from": "0x50b2ae1368f058ed5e1e97aea87ff12c01f6210c",
        "to": "0xef1cc9674b940cc3c8a4cc46ea3d05edcb8e9070",
        "gas": "0xc53e",
        "value": "0x0",
        "input": "0x4bada96100000000000000000000000000000000000000000000000000000000000000600000000000000000000000007123dd26c754ea150af6e8f79a47f35f96d9d8ef000000000000000000000000000000000000000000000000002386f26fc1000000000000000000000000000000000000000000000000000000000000000000045742544300000000000000000000000000000000000000000000000000000000",
        "nonce": "0xd",
        "chainId": "0x8274f"
      },
      "additionalContracts": [],
      "isFixedGasLimit": false
    }
  ],
  "receipts": [
    {
      "status": "0x1",
      "cumulativeGasUsed": "0x8ece",
      "logs": [
        {
          "address": "0xef1cc9674b940cc3c8a4cc46ea3d05edcb8e9070",
          "topics": [
            "0x021066d9f43780503f155e50fc23c3d3ac8ba8edd3fbc3aee45c67ddb5f70788"
          ],
          "data": "0x00000000000000000000000000000000000000000000000000000000000000600000000000000000000000007123dd26c754ea150af6e8f79a47f35f96d9d8ef000000000000000000000000000000000000000000000000002386f26fc1000000000000000000000000000000000000000000000000000000000000000000045742544300000000000000000000000000000000000000000000000000000000",
          "blockHash": "0xf7d2dd40e01795d02dea7ef27bd0e25f415e57cf28199da1af281d3416711fcd",
          "blockNumber": "0x7f2a7b",
          "transactionHash": "0xfe7ef2038d3c68de4fa9f7c7411a7200977714e6fc2932dfafdf1d44e1283dae",
          "transactionIndex": "0x0",
          "logIndex": "0x0",
          "removed": false
        }
      ],
      "logsBloom": "0x00000000000000000000000000000000000000000000000000000000000000000000000000000000000000000000000000000000000000000000000000000000000400000000000000000000000000000000000000000000000000000000000000000000000000000200000000010000000000000000000000010000000000000000000000000000000000000000000000000000000000000000000000000000000000000000000000000000000000000000000000000000000000000000000000000000000000000000000000000000800000000000000000000000000000000000000000000000000000000000000000000000000000000000000200000000",
      "type": "0x0",
      "transactionHash": "0xfe7ef2038d3c68de4fa9f7c7411a7200977714e6fc2932dfafdf1d44e1283dae",
      "transactionIndex": "0x0",
      "blockHash": "0xf7d2dd40e01795d02dea7ef27bd0e25f415e57cf28199da1af281d3416711fcd",
      "blockNumber": "0x7f2a7b",
      "gasUsed": "0x8ece",
      "effectiveGasPrice": "0x256f62b",
      "from": "0x50b2ae1368f058ed5e1e97aea87ff12c01f6210c",
      "to": "0xef1cc9674b940cc3c8a4cc46ea3d05edcb8e9070",
      "contractAddress": null,
      "l1Fee": "0x10daf0e756"
    }
  ],
  "libraries": [],
  "pending": [],
  "returns": {},
  "timestamp": 1740626715,
  "chain": 534351,
  "commit": "f54f965"
}