{
  "transactions": [
    {
      "hash": "0xab892ba83ff34f9fbb419e816298dd4769ad117b61441846db3601f9b519adee",
      "transactionType": "CALL",
      "contractName": null,
      "contractAddress": "0xb4a583c3cdf2b76dfe4a848afce4aa961756c05a",
      "function": "mint(address,uint256)",
      "arguments": [
        "0xef1cc9674b940cc3C8A4Cc46ea3D05eDCb8e9070",
        "1000000000000000000000000"
      ],
      "transaction": {
        "from": "0x50b2ae1368f058ed5e1e97aea87ff12c01f6210c",
        "to": "0xb4a583c3cdf2b76dfe4a848afce4aa961756c05a",
        "gas": "0xc1cb",
        "value": "0x0",
        "input": "0x40c10f19000000000000000000000000ef1cc9674b940cc3c8a4cc46ea3d05edcb8e907000000000000000000000000000000000000000000000d3c21bcecceda1000000",
        "nonce": "0x7",
        "chainId": "0x8274f"
      },
      "additionalContracts": [],
      "isFixedGasLimit": false
    },
    {
      "hash": "0x82b87ca89c131ff478b619df4cf4a4322f6340977cad0ab910b1abd14f8646d4",
      "transactionType": "CALL",
      "contractName": null,
      "contractAddress": "0x191825122cb4150cf91eb64cfe38025c27547eb6",
      "function": "mint(address,uint256)",
      "arguments": [
        "0xef1cc9674b940cc3C8A4Cc46ea3D05eDCb8e9070",
        "100000000000000000000000000"
      ],
      "transaction": {
        "from": "0x50b2ae1368f058ed5e1e97aea87ff12c01f6210c",
        "to": "0x191825122cb4150cf91eb64cfe38025c27547eb6",
        "gas": "0xb717",
        "value": "0x0",
        "input": "0x40c10f19000000000000000000000000ef1cc9674b940cc3c8a4cc46ea3d05edcb8e907000000000000000000000000000000000000000000052b7d2dcc80cd2e4000000",
        "nonce": "0x8",
        "chainId": "0x8274f"
      },
      "additionalContracts": [],
      "isFixedGasLimit": false
    },
    {
      "hash": "0x761d0cf63553cef53a8d73687828c7577504fbe50e860ec46e2040b90b9085ed",
      "transactionType": "CALL",
      "contractName": null,
      "contractAddress": "0x7123dd26c754ea150af6e8f79a47f35f96d9d8ef",
      "function": "mint(address,uint256)",
      "arguments": [
        "0xef1cc9674b940cc3C8A4Cc46ea3D05eDCb8e9070",
        "1000000000000000000000000"
      ],
      "transaction": {
        "from": "0x50b2ae1368f058ed5e1e97aea87ff12c01f6210c",
        "to": "0x7123dd26c754ea150af6e8f79a47f35f96d9d8ef",
        "gas": "0xc1cb",
        "value": "0x0",
        "input": "0x40c10f19000000000000000000000000ef1cc9674b940cc3c8a4cc46ea3d05edcb8e907000000000000000000000000000000000000000000000d3c21bcecceda1000000",
        "nonce": "0x9",
        "chainId": "0x8274f"
      },
      "additionalContracts": [],
      "isFixedGasLimit": false
    }
  ],
  "receipts": [
    {
      "status": "0x1",
      "cumulativeGasUsed": "0x8483",
      "logs": [
        {
          "address": "0xb4a583c3cdf2b76dfe4a848afce4aa961756c05a",
          "topics": [
            "0xddf252ad1be2c89b69c2b068fc378daa952ba7f163c4a11628f55a4df523b3ef",
            "0x0000000000000000000000000000000000000000000000000000000000000000",
            "0x000000000000000000000000ef1cc9674b940cc3c8a4cc46ea3d05edcb8e9070"
          ],
          "data": "0x00000000000000000000000000000000000000000000d3c21bcecceda1000000",
          "blockHash": "0x81e454bd0e2eaa19a904737fbc5877840b512ffbc7dcaf6aa31f1b3bde22e8a2",
          "blockNumber": "0x7f2917",
          "transactionHash": "0xab892ba83ff34f9fbb419e816298dd4769ad117b61441846db3601f9b519adee",
          "transactionIndex": "0x0",
          "logIndex": "0x0",
          "removed": false
        }
      ],
      "logsBloom": "0x00000000000000000000000000000000000000000000000000000000000000000000000000000000000100000000000000000000000000000000000000002000000000000000000000000008000000000000000000000000000000000000000000000000020000000000000000000800000000000000000000000010000000000000000000000000000000000000000000000000000000000001000000008000000000000000000000000000000000000000000000000000000000000000000000000002000000000000000000000000000000000000000000000000000020000020000000000000000000000000000000000000000000000000000000020000",
      "type": "0x0",
      "transactionHash": "0xab892ba83ff34f9fbb419e816298dd4769ad117b61441846db3601f9b519adee",
      "transactionIndex": "0x0",
      "blockHash": "0x81e454bd0e2eaa19a904737fbc5877840b512ffbc7dcaf6aa31f1b3bde22e8a2",
      "blockNumber": "0x7f2917",
      "gasUsed": "0x8483",
      "effectiveGasPrice": "0x2571662",
      "from": "0x50b2ae1368f058ed5e1e97aea87ff12c01f6210c",
      "to": "0xb4a583c3cdf2b76dfe4a848afce4aa961756c05a",
      "contractAddress": null,
      "l1Fee": "0x1388fefd86"
    },
    {
      "status": "0x1",
      "cumulativeGasUsed": "0x125e5",
      "logs": [
        {
          "address": "0x191825122cb4150cf91eb64cfe38025c27547eb6",
          "topics": [
            "0xddf252ad1be2c89b69c2b068fc378daa952ba7f163c4a11628f55a4df523b3ef",
            "0x0000000000000000000000000000000000000000000000000000000000000000",
            "0x000000000000000000000000ef1cc9674b940cc3c8a4cc46ea3d05edcb8e9070"
          ],
          "data": "0x00000000000000000000000000000000000000000052b7d2dcc80cd2e4000000",
          "blockHash": "0x7590046014d266aa2b32abd21d1c0922290f2fca222b979b2cf979e416929fdc",
          "blockNumber": "0x7f2918",
          "transactionHash": "0x82b87ca89c131ff478b619df4cf4a4322f6340977cad0ab910b1abd14f8646d4",
          "transactionIndex": "0x1",
          "logIndex": "0x2",
          "removed": false
        }
      ],
      "logsBloom": "0x00000000000000000000000000000000000000000000000000000000000000000000000000000000000100000000000000000040080000000000000000002000000000000000000000000008000000000000000000000000000000000000000000000000020000000000000000000800000000000000000000000010000000000000000000000000000000000000000000000000000000000000000000000000000000000000000000000000000000000000000000000000000000000000000000000002000000000000000000000000000000000000000000000000000020000000000002000000000000000000000000000000000000000000000000020000",
      "type": "0x0",
      "transactionHash": "0x82b87ca89c131ff478b619df4cf4a4322f6340977cad0ab910b1abd14f8646d4",
      "transactionIndex": "0x1",
      "blockHash": "0x7590046014d266aa2b32abd21d1c0922290f2fca222b979b2cf979e416929fdc",
      "blockNumber": "0x7f2918",
      "gasUsed": "0x848f",
      "effectiveGasPrice": "0x2571662",
      "from": "0x50b2ae1368f058ed5e1e97aea87ff12c01f6210c",
      "to": "0x191825122cb4150cf91eb64cfe38025c27547eb6",
      "contractAddress": null,
      "l1Fee": "0x1237feed87"
    },
    {
      "status": "0x1",
      "cumulativeGasUsed": "0x1aa68",
      "logs": [
        {
          "address": "0x7123dd26c754ea150af6e8f79a47f35f96d9d8ef",
          "topics": [
            "0xddf252ad1be2c89b69c2b068fc378daa952ba7f163c4a11628f55a4df523b3ef",
            "0x0000000000000000000000000000000000000000000000000000000000000000",
            "0x000000000000000000000000ef1cc9674b940cc3c8a4cc46ea3d05edcb8e9070"
          ],
          "data": "0x00000000000000000000000000000000000000000000d3c21bcecceda1000000",
          "blockHash": "0x7590046014d266aa2b32abd21d1c0922290f2fca222b979b2cf979e416929fdc",
          "blockNumber": "0x7f2918",
          "transactionHash": "0x761d0cf63553cef53a8d73687828c7577504fbe50e860ec46e2040b90b9085ed",
          "transactionIndex": "0x2",
          "logIndex": "0x3",
          "removed": false
        }
      ],
      "logsBloom": "0x00000000000000000000000000000000000000000400000000000000000000000000000000000800000100000000000000000000000000000000000000002000000000000000000000000008000000000000000000000000000008000000000000000000020000000000000000000800000000000000000000000010000000000000000000000000000000000000000000000000000000000000000000000000000000000000000000000000000000000000000000000000000000000000000000000002000000000000000000000000000000000000000000000000000020000000000000000000000000000000000000000000000000000000000000020000",
      "type": "0x0",
      "transactionHash": "0x761d0cf63553cef53a8d73687828c7577504fbe50e860ec46e2040b90b9085ed",
      "transactionIndex": "0x2",
      "blockHash": "0x7590046014d266aa2b32abd21d1c0922290f2fca222b979b2cf979e416929fdc",
      "blockNumber": "0x7f2918",
      "gasUsed": "0x8483",
      "effectiveGasPrice": "0x2571662",
      "from": "0x50b2ae1368f058ed5e1e97aea87ff12c01f6210c",
      "to": "0x7123dd26c754ea150af6e8f79a47f35f96d9d8ef",
      "contractAddress": null,
      "l1Fee": "0x1237feed87"
    }
  ],
  "libraries": [],
  "pending": [],
  "returns": {},
  "timestamp": 1740623793,
  "chain": 534351,
  "commit": "eccbb9d"
}