{
  "transactions": [
    {
      "hash": "0x165d583bdf9510f5f65643718f5ba39bcd58abe25e3920fb5792d3b65f1df39e",
      "transactionType": "CREATE",
      "contractName": "TestnetFaucet",
      "contractAddress": "0x44d81e39b7a19c53581ca90361241cdc1721fc72",
      "function": null,
      "arguments": null,
      "transaction": {
        "from": "0x63bb52acc0124a85b442e6de544d03825c882892",
        "gas": "0xfe204",
        "value": "0x0",
        "input": "0x6080604052620151806005553480156015575f5ffd5b503380603a57604051631e4fbdf760e01b81525f600482015260240160405180910390fd5b604181604a565b50600180556099565b5f80546001600160a01b038381166001600160a01b0319831681178455604051919092169283917f8be0079c531659141344cd1fd0a4f28419497f9722a3daafe3b4186f6b6457e09190a35050565b610c3c806100a65f395ff3fe608060405234801561000f575f5ffd5b50600436106100cb575f3560e01c8063715018a61161008857806389919cdd1161006357806389919cdd146101ca5780638da5cb5b14610216578063d66187b414610226578063f2fde38b14610239575f5ffd5b8063715018a61461018c5780637556b27414610194578063861f6bfd146101b7575f5ffd5b806304646a49146100cf578063213522e8146100eb578063229c01d414610116578063333acbf214610129578063423cf6c3146101645780634bada96114610177575b5f5ffd5b6100d860055481565b6040519081526020015b60405180910390f35b6100d86100f93660046109d9565b805160208183018101805160038252928201919093012091525481565b6100d86101243660046109d9565b61024c565b6100d8610137366004610a2e565b600460209081525f9283526040909220815180830184018051928152908401929093019190912091525481565b6100d8610172366004610a2e565b610273565b61018a610185366004610a79565b6102e3565b005b61018a61043d565b6101a76101a2366004610a2e565b610450565b60405190151581526020016100e2565b61018a6101c5366004610acd565b61049e565b6101fe6101d83660046109d9565b80516020818301810180516002825292820191909301209152546001600160a01b031681565b6040516001600160a01b0390911681526020016100e2565b5f546001600160a01b03166101fe565b61018a610234366004610a2e565b6104e1565b61018a610247366004610ae4565b610858565b5f60038260405161025d9190610b04565b9081526020016040518091039020549050919050565b6001600160a01b0382165f90815260046020526040808220905182919061029b908590610b04565b90815260200160405180910390205490505f600554826102bb9190610b2e565b90508042106102ce575f925050506102dd565b6102d84282610b41565b925050505b92915050565b6102eb610895565b6001600160a01b03821661033e5760405162461bcd60e51b8152602060048201526015602482015274496e76616c696420746f6b656e206164647265737360581b60448201526064015b60405180910390fd5b5f81116103985760405162461bcd60e51b815260206004820152602260248201527f4472697020616d6f756e74206d7573742062652067726561746572207468616e604482015261020360f41b6064820152608401610335565b816002846040516103a99190610b04565b90815260200160405180910390205f6101000a8154816001600160a01b0302191690836001600160a01b03160217905550806003846040516103eb9190610b04565b9081526020016040518091039020819055507f021066d9f43780503f155e50fc23c3d3ac8ba8edd3fbc3aee45c67ddb5f7078883838360405161043093929190610b82565b60405180910390a1505050565b610445610895565b61044e5f6108c1565b565b6005546001600160a01b0383165f90815260046020526040808220905191929161047b908590610b04565b9081526020016040518091039020546104949190610b2e565b4210159392505050565b6104a6610895565b60058190556040518181527f3b897fd6944545fcb6a5d5b058781d763169157f8559ca1a7f3276b981d099719060200160405180910390a150565b6104e9610910565b6001600160a01b03821661053f5760405162461bcd60e51b815260206004820152601960248201527f496e76616c696420726563697069656e742061646472657373000000000000006044820152606401610335565b5f6002826040516105509190610b04565b908152604051908190036020019020546001600160a01b03169050806105ae5760405162461bcd60e51b8152602060048201526013602482015272151bdad95b881b9bdd081cdd5c1c1bdc9d1959606a1b6044820152606401610335565b6005546001600160a01b0384165f908152600460205260409081902090516105d7908590610b04565b9081526020016040518091039020546105f09190610b2e565b42101561064e5760405162461bcd60e51b815260206004820152602660248201527f506c65617365207761697420666f7220636f6f6c646f776e20706572696f64206044820152651d1bc8195b9960d21b6064820152608401610335565b5f60038360405161065f9190610b04565b908152604051908190036020018120546370a0823160e01b82523060048301529150829082906001600160a01b038316906370a0823190602401602060405180830381865afa1580156106b4573d5f5f3e3d5ffd5b505050506040513d601f19601f820116820180604052508101906106d89190610baf565b10156107185760405162461bcd60e51b815260206004820152600f60248201526e46617563657420697320656d70747960881b6044820152606401610335565b6001600160a01b0385165f90815260046020526040908190209051429190610741908790610b04565b9081526040519081900360200181209190915563a9059cbb60e01b81526001600160a01b0386811660048301526024820184905282169063a9059cbb906044016020604051808303815f875af115801561079d573d5f5f3e3d5ffd5b505050506040513d601f19601f820116820180604052508101906107c19190610bc6565b6108055760405162461bcd60e51b8152602060048201526015602482015274151bdad95b881d1c985b9cd9995c8819985a5b1959605a1b6044820152606401610335565b846001600160a01b03167f507581f4d2b7bb21a218396a5cbd6ef103d1222bfb0a4923f50dea4b7d7a98b08584604051610840929190610be5565b60405180910390a250505061085460018055565b5050565b610860610895565b6001600160a01b03811661088957604051631e4fbdf760e01b81525f6004820152602401610335565b610892816108c1565b50565b5f546001600160a01b0316331461044e5760405163118cdaa760e01b8152336004820152602401610335565b5f80546001600160a01b038381166001600160a01b0319831681178455604051919092169283917f8be0079c531659141344cd1fd0a4f28419497f9722a3daafe3b4186f6b6457e09190a35050565b60026001540361093357604051633ee5aeb560e01b815260040160405180910390fd5b6002600155565b634e487b7160e01b5f52604160045260245ffd5b5f82601f83011261095d575f5ffd5b813567ffffffffffffffff8111156109775761097761093a565b604051601f8201601f19908116603f0116810167ffffffffffffffff811182821017156109a6576109a661093a565b6040528181528382016020018510156109bd575f5ffd5b816020850160208301375f918101602001919091529392505050565b5f602082840312156109e9575f5ffd5b813567ffffffffffffffff8111156109ff575f5ffd5b610a0b8482850161094e565b949350505050565b80356001600160a01b0381168114610a29575f5ffd5b919050565b5f5f60408385031215610a3f575f5ffd5b610a4883610a13565b9150602083013567ffffffffffffffff811115610a63575f5ffd5b610a6f8582860161094e565b9150509250929050565b5f5f5f60608486031215610a8b575f5ffd5b833567ffffffffffffffff811115610aa1575f5ffd5b610aad8682870161094e565b935050610abc60208501610a13565b929592945050506040919091013590565b5f60208284031215610add575f5ffd5b5035919050565b5f60208284031215610af4575f5ffd5b610afd82610a13565b9392505050565b5f82518060208501845e5f920191825250919050565b634e487b7160e01b5f52601160045260245ffd5b808201808211156102dd576102dd610b1a565b818103818111156102dd576102dd610b1a565b5f81518084528060208401602086015e5f602082860101526020601f19601f83011685010191505092915050565b606081525f610b946060830186610b54565b6001600160a01b039490941660208301525060400152919050565b5f60208284031215610bbf575f5ffd5b5051919050565b5f60208284031215610bd6575f5ffd5b81518015158114610afd575f5ffd5b604081525f610bf76040830185610b54565b9050826020830152939250505056fea2646970667358221220705d41c96e7f65d31c25ea1fcb32eb7ad01350fbaeb1c2e8c5717d6e2b6ca97f64736f6c634300081c0033",
        "nonce": "0x9",
        "chainId": "0x14a34"
      },
      "additionalContracts": [],
      "isFixedGasLimit": false
    },
    {
      "hash": "0x97ba252a967c7739e88d5c4423e144fe7257895a9e9bee5c327dfd0419c95081",
      "transactionType": "CALL",
      "contractName": "TestnetFaucet",
      "contractAddress": "0x44d81e39b7a19c53581ca90361241cdc1721fc72",
      "function": "addToken(string,address,uint256)",
      "arguments": [
        "ETH_LINK",
        "0x46d4AafcEd9cc65089D1606e6cAE85fe6D7df456",
        "25000000000000000000"
      ],
      "transaction": {
        "from": "0x63bb52acc0124a85b442e6de544d03825c882892",
        "to": "0x44d81e39b7a19c53581ca90361241cdc1721fc72",
        "gas": "0x19c33",
        "value": "0x0",
        "input": "0x4bada961000000000000000000000000000000000000000000000000000000000000006000000000000000000000000046d4aafced9cc65089d1606e6cae85fe6d7df4560000000000000000000000000000000000000000000000015af1d78b58c4000000000000000000000000000000000000000000000000000000000000000000084554485f4c494e4b000000000000000000000000000000000000000000000000",
        "nonce": "0xa",
        "chainId": "0x14a34"
      },
      "additionalContracts": [],
      "isFixedGasLimit": false
    },
    {
      "hash": "0x4d44ac883ad9601218ef8d4aa6ba04c0c19be57948730ac2205dcd218ae77880",
      "transactionType": "CALL",
      "contractName": "TestnetFaucet",
      "contractAddress": "0x44d81e39b7a19c53581ca90361241cdc1721fc72",
      "function": "addToken(string,address,uint256)",
      "arguments": [
        "ETH_DAI",
        "0xFEa8109D6955c4F3F7930ad57B5798606264BDB0",
        "10000000000000000000"
      ],
      "transaction": {
        "from": "0x63bb52acc0124a85b442e6de544d03825c882892",
        "to": "0x44d81e39b7a19c53581ca90361241cdc1721fc72",
        "gas": "0x19c10",
        "value": "0x0",
        "input": "0x4bada9610000000000000000000000000000000000000000000000000000000000000060000000000000000000000000fea8109d6955c4f3f7930ad57b5798606264bdb00000000000000000000000000000000000000000000000008ac7230489e8000000000000000000000000000000000000000000000000000000000000000000074554485f44414900000000000000000000000000000000000000000000000000",
        "nonce": "0xb",
        "chainId": "0x14a34"
      },
      "additionalContracts": [],
      "isFixedGasLimit": false
    }
  ],
  "receipts": [
    {
      "status": "0x1",
      "cumulativeGasUsed": "0x1744f0",
      "logs": [
        {
          "address": "0x44d81e39b7a19c53581ca90361241cdc1721fc72",
          "topics": [
            "0x8be0079c531659141344cd1fd0a4f28419497f9722a3daafe3b4186f6b6457e0",
            "0x0000000000000000000000000000000000000000000000000000000000000000",
            "0x00000000000000000000000063bb52acc0124a85b442e6de544d03825c882892"
          ],
          "data": "0x",
          "blockHash": "0x25a83fb9c523428169e8e2a912240caeb3ed6140f640e2b041044210da686271",
          "blockNumber": "0x19e6581",
          "blockTimestamp": "0x685029e2",
          "transactionHash": "0x165d583bdf9510f5f65643718f5ba39bcd58abe25e3920fb5792d3b65f1df39e",
          "transactionIndex": "0x5",
          "logIndex": "0x8",
          "removed": false
        }
      ],
      "logsBloom": "0x00000000000000000000000000000020000000000000000000800000000000000000000000000000000000000000000000000000000000000000000000080000000000000000000000000000000000000001000000000000000000000000000000000000020000000100000000000800000000000000000000000000000000400000000000000008000000000000000000000000000000000000000000000000000000000000000000000000000000000000000000000000008000000000000000000000000000000000000000000000000000000000000000000000000020000000000000000000000000000002000000000000000000000000000000000000",
      "type": "0x2",
      "transactionHash": "0x165d583bdf9510f5f65643718f5ba39bcd58abe25e3920fb5792d3b65f1df39e",
      "transactionIndex": "0x5",
      "blockHash": "0x25a83fb9c523428169e8e2a912240caeb3ed6140f640e2b041044210da686271",
      "blockNumber": "0x19e6581",
      "gasUsed": "0xc37b5",
      "effectiveGasPrice": "0x1260f",
      "from": "0x63bb52acc0124a85b442e6de544d03825c882892",
      "to": null,
      "contractAddress": "0x44d81e39b7a19c53581ca90361241cdc1721fc72",
      "l1BaseFeeScalar": "0x44d",
      "l1BlobBaseFee": "0x1",
      "l1BlobBaseFeeScalar": "0xa118b",
      "l1Fee": "0x53f68d43",
      "l1GasPrice": "0x26d3649",
      "l1GasUsed": "0x7ac2"
    },
    {
      "status": "0x1",
      "cumulativeGasUsed": "0x2936a6",
      "logs": [
        {
          "address": "0x44d81e39b7a19c53581ca90361241cdc1721fc72",
          "topics": [
            "0x021066d9f43780503f155e50fc23c3d3ac8ba8edd3fbc3aee45c67ddb5f70788"
          ],
          "data": "0x000000000000000000000000000000000000000000000000000000000000006000000000000000000000000046d4aafced9cc65089d1606e6cae85fe6d7df4560000000000000000000000000000000000000000000000015af1d78b58c4000000000000000000000000000000000000000000000000000000000000000000084554485f4c494e4b000000000000000000000000000000000000000000000000",
          "blockHash": "0x25a83fb9c523428169e8e2a912240caeb3ed6140f640e2b041044210da686271",
          "blockNumber": "0x19e6581",
          "blockTimestamp": "0x685029e2",
          "transactionHash": "0x97ba252a967c7739e88d5c4423e144fe7257895a9e9bee5c327dfd0419c95081",
          "transactionIndex": "0xa",
          "logIndex": "0x12",
          "removed": false
        }
      ],
      "logsBloom": "0x00000000000000000000000000000020000000000000000000000000000000000000000000000000000000000000000000000000000000000000000000000000000000000000000000000000000000000000000000000000000000000000000000000000000000000100000000010000000000000000000000000000000000000000000000000008000000000000000000000000000000000000000000000000000000000000000000000000000000000000000000000000000000000000000000000000000000000000000000000000800000000000000000000000000000000000000000000000000000000000000000000000000000000000000200000000",
      "type": "0x2",
      "transactionHash": "0x97ba252a967c7739e88d5c4423e144fe7257895a9e9bee5c327dfd0419c95081",
      "transactionIndex": "0xa",
      "blockHash": "0x25a83fb9c523428169e8e2a912240caeb3ed6140f640e2b041044210da686271",
      "blockNumber": "0x19e6581",
      "gasUsed": "0x119d9",
      "effectiveGasPrice": "0x1260f",
      "from": "0x63bb52acc0124a85b442e6de544d03825c882892",
      "to": "0x44d81e39b7a19c53581ca90361241cdc1721fc72",
      "contractAddress": null,
      "l1BaseFeeScalar": "0x44d",
      "l1BlobBaseFee": "0x1",
      "l1BlobBaseFeeScalar": "0xa118b",
      "l1Fee": "0x4ddc836",
      "l1GasPrice": "0x26d3649",
      "l1GasUsed": "0x71d"
    },
    {
      "status": "0x1",
      "cumulativeGasUsed": "0x2a5067",
      "logs": [
        {
          "address": "0x44d81e39b7a19c53581ca90361241cdc1721fc72",
          "topics": [
            "0x021066d9f43780503f155e50fc23c3d3ac8ba8edd3fbc3aee45c67ddb5f70788"
          ],
          "data": "0x0000000000000000000000000000000000000000000000000000000000000060000000000000000000000000fea8109d6955c4f3f7930ad57b5798606264bdb00000000000000000000000000000000000000000000000008ac7230489e8000000000000000000000000000000000000000000000000000000000000000000074554485f44414900000000000000000000000000000000000000000000000000",
          "blockHash": "0x25a83fb9c523428169e8e2a912240caeb3ed6140f640e2b041044210da686271",
          "blockNumber": "0x19e6581",
          "blockTimestamp": "0x685029e2",
          "transactionHash": "0x4d44ac883ad9601218ef8d4aa6ba04c0c19be57948730ac2205dcd218ae77880",
          "transactionIndex": "0xb",
          "logIndex": "0x13",
          "removed": false
        }
      ],
      "logsBloom": "0x00000000000000000000000000000020000000000000000000000000000000000000000000000000000000000000000000000000000000000000000000000000000000000000000000000000000000000000000000000000000000000000000000000000000000000100000000010000000000000000000000000000000000000000000000000008000000000000000000000000000000000000000000000000000000000000000000000000000000000000000000000000000000000000000000000000000000000000000000000000800000000000000000000000000000000000000000000000000000000000000000000000000000000000000200000000",
      "type": "0x2",
      "transactionHash": "0x4d44ac883ad9601218ef8d4aa6ba04c0c19be57948730ac2205dcd218ae77880",
      "transactionIndex": "0xb",
      "blockHash": "0x25a83fb9c523428169e8e2a912240caeb3ed6140f640e2b041044210da686271",
      "blockNumber": "0x19e6581",
      "gasUsed": "0x119c1",
      "effectiveGasPrice": "0x1260f",
      "from": "0x63bb52acc0124a85b442e6de544d03825c882892",
      "to": "0x44d81e39b7a19c53581ca90361241cdc1721fc72",
      "contractAddress": null,
      "l1BaseFeeScalar": "0x44d",
      "l1BlobBaseFee": "0x1",
      "l1BlobBaseFeeScalar": "0xa118b",
      "l1Fee": "0x4cb7956",
      "l1GasPrice": "0x26d3649",
      "l1GasUsed": "0x702"
    }
  ],
  "libraries": [],
  "pending": [],
  "returns": {},
  "timestamp": 1750084064,
  "chain": 84532,
  "commit": "b476805"
}