{
  "transactions": [
    {
      "hash": "0xa2c26d559a4f69d0878ed6a1e21536c3b14e04bcbee8b741a41d6a827d3318d3",
      "transactionType": "CALL",
      "contractName": null,
      "contractAddress": "0xef1cc9674b940cc3c8a4cc46ea3d05edcb8e9070",
      "function": "addToken(string,address,uint256)",
      "arguments": [
        "LINK",
        "0x9b76e44C8d3a625D0d5e9a04227dc878B31897C2",
        "25000000000000000000"
      ],
      "transaction": {
        "from": "0x50b2ae1368f058ed5e1e97aea87ff12c01f6210c",
        "to": "0xef1cc9674b940cc3c8a4cc46ea3d05edcb8e9070",
        "gas": "0xc560",
        "value": "0x0",
        "input": "0x4bada96100000000000000000000000000000000000000000000000000000000000000600000000000000000000000009b76e44c8d3a625d0d5e9a04227dc878b31897c20000000000000000000000000000000000000000000000015af1d78b58c4000000000000000000000000000000000000000000000000000000000000000000044c494e4b00000000000000000000000000000000000000000000000000000000",
        "nonce": "0x8",
        "chainId": "0x14a34"
      },
      "additionalContracts": [],
      "isFixedGasLimit": false
    }
  ],
  "receipts": [
    {
      "status": "0x1",
      "cumulativeGasUsed": "0x2a8adc",
      "logs": [
        {
          "address": "0xef1cc9674b940cc3c8a4cc46ea3d05edcb8e9070",
          "topics": [
            "0x021066d9f43780503f155e50fc23c3d3ac8ba8edd3fbc3aee45c67ddb5f70788"
          ],
          "data": "0x00000000000000000000000000000000000000000000000000000000000000600000000000000000000000009b76e44c8d3a625d0d5e9a04227dc878b31897c20000000000000000000000000000000000000000000000015af1d78b58c4000000000000000000000000000000000000000000000000000000000000000000044c494e4b00000000000000000000000000000000000000000000000000000000",
          "blockHash": "0xfb10ac74289eb2716e96770ac0c68111f66015cd867496d29acd7709e9bd1fd6",
          "blockNumber": "0x18a4228",
          "blockTimestamp": "0x6827e330",
          "transactionHash": "0xa2c26d559a4f69d0878ed6a1e21536c3b14e04bcbee8b741a41d6a827d3318d3",
          "transactionIndex": "0x13",
          "logIndex": "0x51",
          "removed": false
        }
      ],
      "logsBloom": "0x00000000000000000000000000000000000000000000000000000000000000000000000000000000000000000000000000000000000000000000000000000000000400000000000000000000000000000000000000000000000000000000000000000000000000000200000000010000000000000000000000010000000000000000000000000000000000000000000000000000000000000000000000000000000000000000000000000000000000000000000000000000000000000000000000000000000000000000000000000000800000000000000000000000000000000000000000000000000000000000000000000000000000000000000200000000",
      "type": "0x2",
      "transactionHash": "0xa2c26d559a4f69d0878ed6a1e21536c3b14e04bcbee8b741a41d6a827d3318d3",
      "transactionIndex": "0x13",
      "blockHash": "0xfb10ac74289eb2716e96770ac0c68111f66015cd867496d29acd7709e9bd1fd6",
      "blockNumber": "0x18a4228",
      "gasUsed": "0x8ee6",
      "effectiveGasPrice": "0xf4582",
      "from": "0x50b2ae1368f058ed5e1e97aea87ff12c01f6210c",
      "to": "0xef1cc9674b940cc3c8a4cc46ea3d05edcb8e9070",
      "contractAddress": null,
      "l1BaseFeeScalar": "0x44d",
      "l1BlobBaseFee": "0x1",
      "l1BlobBaseFeeScalar": "0xa118b",
      "l1Fee": "0x936fe",
      "l1GasPrice": "0x4c50a",
      "l1GasUsed": "0x6da"
    }
  ],
  "libraries": [],
  "pending": [],
  "returns": {},
  "timestamp": 1747444527,
  "chain": 84532,
  "commit": null
}